{"contracts/WorkLogRegistry.sol":{"WorkLogRegistry":{"abi":[{"anonymous":false,"inputs":[{"indexed":true,"internalType":"bytes32","name":"logHash","type":"bytes32"},{"indexed":true,"internalType":"uint256","name":"eventId","type":"uint256"},{"indexed":true,"internalType":"bytes32","name":"workerUidHash","type":"bytes32"},{"indexed":false,"internalType":"address","name":"anchoredBy","type":"address"},{"indexed":false,"internalType":"uint256","name":"timestamp","type":"uint256"}],"name":"WorkLogRecorded","type":"event"},{"inputs":[{"internalType":"bytes32","name":"logHash","type":"bytes32"}],"name":"getWorkLog","outputs":[{"components":[{"internalType":"bytes32","name":"logHash","type":"bytes32"},{"internalType":"uint256","name":"eventId","type":"uint256"},{"internalType":"bytes32","name":"workerUidHash","type":"bytes32"},{"internalType":"address","name":"anchoredBy","type":"address"},{"internalType":"uint256","name":"timestamp","type":"uint256"}],"internalType":"struct WorkLogRegistry.WorkLog","name":"","type":"tuple"}],"stateMutability":"view","type":"function"},{"inputs":[{"internalType":"bytes32","name":"logHash","type":"bytes32"}],"name":"logExists","outputs":[{"internalType":"bool","name":"","type":"bool"}],"stateMutability":"view","type":"function"},{"inputs":[{"internalType":"bytes32","name":"logHash","type":"bytes32"},{"internalType":"uint256","name":"eventId","type":"uint256"},{"internalType":"bytes32","name":"workerUidHash","type":"bytes32"}],"name":"recordWorkLog","outputs":[],"stateMutability":"nonpayable","type":"function"},{"inputs":[{"internalType":"bytes32","name":"","type":"bytes32"}],"name":"workLogs","outputs":[{"internalType":"bytes32","name":"logHash","type":"bytes32"},{"internalType":"uint256","name":"eventId","type":"uint256"},{"internalType":"bytes32","name":"workerUidHash","type":"bytes32"},{"internalType":"address","name":"anchoredBy","type":"address"},{"internalType":"uint256","name":"timestamp","type":"uint256"}],"stateMutability":"view","type":"function"}],"evm":{"bytecode":{"linkReferences":{},"object":"608060405234801561001057600080fd5b50610447806100206000396000f3fe608060405234801561001057600080fd5b506004361061004c5760003560e01c80631f35b20f1461005157806346c1f9d81461006657806377d03652146100e2578063b03ea8b214610117575b600080fd5b61006461005f3660046103cc565b6101ec565b005b6100ac6100743660046103f8565b600060208190529081526040902080546001820154600283015460038401546004909401549293919290916001600160a01b03169085565b604080519586526020860194909452928401919091526001600160a01b03166060830152608082015260a0015b60405180910390f35b6101076100f03660046103f8565b600090815260208190526040902060040154151590565b60405190151581526020016100d9565b6101a66101253660046103f8565b6040805160a0810182526000808252602082018190529181018290526060810182905260808101919091525060009081526020818152604091829020825160a0810184528154815260018201549281019290925260028101549282019290925260038201546001600160a01b03166060820152600490910154608082015290565b6040516100d991908151815260208083015190820152604080830151908201526060808301516001600160a01b0316908201526080918201519181019190915260a00190565b826102315760405162461bcd60e51b815260206004820152601060248201526f092dcecc2d8d2c840d8dece40d0c2e6d60831b60448201526064015b60405180910390fd5b600082116102745760405162461bcd60e51b815260206004820152601060248201526f125b9d985b1a5908195d995b9d08125160821b6044820152606401610228565b806102c15760405162461bcd60e51b815260206004820152601760248201527f496e76616c696420776f726b65722055494420686173680000000000000000006044820152606401610228565b600083815260208190526040902060040154156103155760405162461bcd60e51b81526020600482015260126024820152714c6f6720616c72656164792065786973747360701b6044820152606401610228565b6040805160a08101825284815260208082018581528284018581523360608501818152426080870181815260008c8152808852899020975188559451600188015592516002870155516003860180546001600160a01b0319166001600160a01b0390921691909117905591516004909401939093558351908152908101919091528291849186917f05a80f3fc67a667ab6445e37a79e442cad9581db42b0aab36abe1d49f78788a4910160405180910390a4505050565b6000806000606084860312156103e157600080fd5b505081359360208301359350604090920135919050565b60006020828403121561040a57600080fd5b503591905056fea264697066735822122016e2790835e4f12628faf6ed0510d01960dd1040a0b83a5d7f8c1cfa391ef0d364736f6c63430008160033","opcodes":"PUSH1 0x80 PUSH1 0x40 MSTORE CALLVALUE DUP1 ISZERO PUSH2 0x10 JUMPI PUSH1 0x0 DUP1 REVERT JUMPDEST POP PUSH2 0x447 DUP1 PUSH2 0x20 PUSH1 0x0 CODECOPY PUSH1 0x0 RETURN INVALID PUSH1 0x80 PUSH1 0x40 MSTORE CALLVALUE DUP1 ISZERO PUSH2 0x10 JUMPI PUSH1 0x0 DUP1 REVERT JUMPDEST POP PUSH1 0x4 CALLDATASIZE LT PUSH2 0x4C JUMPI PUSH1 0x0 CALLDATALOAD PUSH1 0xE0 SHR DUP1 PUSH4 0x1F35B20F EQ PUSH2 0x51 JUMPI DUP1 PUSH4 0x46C1F9D8 EQ PUSH2 0x66 JUMPI DUP1 PUSH4 0x77D03652 EQ PUSH2 0xE2 JUMPI DUP1 PUSH4 0xB03EA8B2 EQ PUSH2 0x117 JUMPI JUMPDEST PUSH1 0x0 DUP1 REVERT JUMPDEST PUSH2 0x64 PUSH2 0x5F CALLDATASIZE PUSH1 0x4 PUSH2 0x3CC JUMP JUMPDEST PUSH2 0x1EC JUMP JUMPDEST STOP JUMPDEST PUSH2 0xAC PUSH2 0x74 CALLDATASIZE PUSH1 0x4 PUSH2 0x3F8 JUMP JUMPDEST PUSH1 0x0 PUSH1 0x20 DUP2 SWAP1 MSTORE SWAP1 DUP2 MSTORE PUSH1 0x40 SWAP1 KECCAK256 DUP1 SLOAD PUSH1 0x1 DUP3 ADD SLOAD PUSH1 0x2 DUP4 ADD SLOAD PUSH1 0x3 DUP5 ADD SLOAD PUSH1 0x4 SWAP1 SWAP5 ADD SLOAD SWAP3 SWAP4 SWAP2 SWAP3 SWAP1 SWAP2 PUSH1 0x1 PUSH1 0x1 PUSH1 0xA0 SHL SUB AND SWAP1 DUP6 JUMP JUMPDEST PUSH1 0x40 DUP1 MLOAD SWAP6 DUP7 MSTORE PUSH1 0x20 DUP7 ADD SWAP5 SWAP1 SWAP5 MSTORE SWAP3 DUP5 ADD SWAP2 SWAP1 SWAP2 MSTORE PUSH1 0x1 PUSH1 0x1 PUSH1 0xA0 SHL SUB AND PUSH1 0x60 DUP4 ADD MSTORE PUSH1 0x80 DUP3 ADD MSTORE PUSH1 0xA0 ADD JUMPDEST PUSH1 0x40 MLOAD DUP1 SWAP2 SUB SWAP1 RETURN JUMPDEST PUSH2 0x107 PUSH2 0xF0 CALLDATASIZE PUSH1 0x4 PUSH2 0x3F8 JUMP JUMPDEST PUSH1 0x0 SWAP1 DUP2 MSTORE PUSH1 0x20 DUP2 SWAP1 MSTORE PUSH1 0x40 SWAP1 KECCAK256 PUSH1 0x4 ADD SLOAD ISZERO ISZERO SWAP1 JUMP JUMPDEST PUSH1 0x40 MLOAD SWAP1 ISZERO ISZERO DUP2 MSTORE PUSH1 0x20 ADD PUSH2 0xD9 JUMP JUMPDEST PUSH2 0x1A6 PUSH2 0x125 CALLDATASIZE PUSH1 0x4 PUSH2 0x3F8 JUMP JUMPDEST PUSH1 0x40 DUP1 MLOAD PUSH1 0xA0 DUP2 ADD DUP3 MSTORE PUSH1 0x0 DUP1 DUP3 MSTORE PUSH1 0x20 DUP3 ADD DUP2 SWAP1 MSTORE SWAP2 DUP2 ADD DUP3 SWAP1 MSTORE PUSH1 0x60 DUP2 ADD DUP3 SWAP1 MSTORE PUSH1 0x80 DUP2 ADD SWAP2 SWAP1 SWAP2 MSTORE POP PUSH1 0x0 SWAP1 DUP2 MSTORE PUSH1 0x20 DUP2 DUP2 MSTORE PUSH1 0x40 SWAP2 DUP3 SWAP1 KECCAK256 DUP3 MLOAD PUSH1 0xA0 DUP2 ADD DUP5 MSTORE DUP2 SLOAD DUP2 MSTORE PUSH1 0x1 DUP3 ADD SLOAD SWAP3 DUP2 ADD SWAP3 SWAP1 SWAP3 MSTORE PUSH1 0x2 DUP2 ADD SLOAD SWAP3 DUP3 ADD SWAP3 SWAP1 SWAP3 MSTORE PUSH1 0x3 DUP3 ADD SLOAD PUSH1 0x1 PUSH1 0x1 PUSH1 0xA0 SHL SUB AND PUSH1 0x60 DUP3 ADD MSTORE PUSH1 0x4 SWAP1 SWAP2 ADD SLOAD PUSH1 0x80 DUP3 ADD MSTORE SWAP1 JUMP JUMPDEST PUSH1 0x40 MLOAD PUSH2 0xD9 SWAP2 SWAP1 DUP2 MLOAD DUP2 MSTORE PUSH1 0x20 DUP1 DUP4 ADD MLOAD SWAP1 DUP3 ADD MSTORE PUSH1 0x40 DUP1 DUP4 ADD MLOAD SWAP1 DUP3 ADD MSTORE PUSH1 0x60 DUP1 DUP4 ADD MLOAD PUSH1 0x1 PUSH1 0x1 PUSH1 0xA0 SHL SUB AND SWAP1 DUP3 ADD MSTORE PUSH1 0x80 SWAP2 DUP3 ADD MLOAD SWAP2 DUP2 ADD SWAP2 SWAP1 SWAP2 MSTORE PUSH1 0xA0 ADD SWAP1 JUMP JUMPDEST DUP3 PUSH2 0x231 JUMPI PUSH1 0x40 MLOAD PUSH3 0x461BCD PUSH1 0xE5 SHL DUP2 MSTORE PUSH1 0x20 PUSH1 0x4 DUP3 ADD MSTORE PUSH1 0x10 PUSH1 0x24 DUP3 ADD MSTORE PUSH16 0x92DCECC2D8D2C840D8DECE40D0C2E6D PUSH1 0x83 SHL PUSH1 0x44 DUP3 ADD MSTORE PUSH1 0x64 ADD JUMPDEST PUSH1 0x40 MLOAD DUP1 SWAP2 SUB SWAP1 REVERT JUMPDEST PUSH1 0x0 DUP3 GT PUSH2 0x274 JUMPI PUSH1 0x40 MLOAD PUSH3 0x461BCD PUSH1 0xE5 SHL DUP2 MSTORE PUSH1 0x20 PUSH1 0x4 DUP3 ADD MSTORE PUSH1 0x10 PUSH1 0x24 DUP3 ADD MSTORE PUSH16 0x125B9D985B1A5908195D995B9D081251 PUSH1 0x82 SHL PUSH1 0x44 DUP3 ADD MSTORE PUSH1 0x64 ADD PUSH2 0x228 JUMP JUMPDEST DUP1 PUSH2 0x2C1 JUMPI PUSH1 0x40 MLOAD PUSH3 0x461BCD PUSH1 0xE5 SHL DUP2 MSTORE PUSH1 0x20 PUSH1 0x4 DUP3 ADD MSTORE PUSH1 0x17 PUSH1 0x24 DUP3 ADD MSTORE PUSH32 0x496E76616C696420776F726B6572205549442068617368000000000000000000 PUSH1 0x44 DUP3 ADD MSTORE PUSH1 0x64 ADD PUSH2 0x228 JUMP JUMPDEST PUSH1 0x0 DUP4 DUP2 MSTORE PUSH1 0x20 DUP2 SWAP1 MSTORE PUSH1 0x40 SWAP1 KECCAK256 PUSH1 0x4 ADD SLOAD ISZERO PUSH2 0x315 JUMPI PUSH1 0x40 MLOAD PUSH3 0x461BCD PUSH1 0xE5 SHL DUP2 MSTORE PUSH1 0x20 PUSH1 0x4 DUP3 ADD MSTORE PUSH1 0x12 PUSH1 0x24 DUP3 ADD MSTORE PUSH18 0x4C6F6720616C726561647920657869737473 PUSH1 0x70 SHL PUSH1 0x44 DUP3 ADD MSTORE PUSH1 0x64 ADD PUSH2 0x228 JUMP JUMPDEST PUSH1 0x40 DUP1 MLOAD PUSH1 0xA0 DUP2 ADD DUP3 MSTORE DUP5 DUP2 MSTORE PUSH1 0x20 DUP1 DUP3 ADD DUP6 DUP2 MSTORE DUP3 DUP5 ADD DUP6 DUP2 MSTORE CALLER PUSH1 0x60 DUP6 ADD DUP2 DUP2 MSTORE TIMESTAMP PUSH1 0x80 DUP8 ADD DUP2 DUP2 MSTORE PUSH1 0x0 DUP13 DUP2 MSTORE DUP1 DUP9 MSTORE DUP10 SWAP1 KECCAK256 SWAP8 MLOAD DUP9 SSTORE SWAP5 MLOAD PUSH1 0x1 DUP9 ADD SSTORE SWAP3 MLOAD PUSH1 0x2 DUP8 ADD SSTORE MLOAD PUSH1 0x3 DUP7 ADD DUP1 SLOAD PUSH1 0x1 PUSH1 0x1 PUSH1 0xA0 SHL SUB NOT AND PUSH1 0x1 PUSH1 0x1 PUSH1 0xA0 SHL SUB SWAP1 SWAP3 AND SWAP2 SWAP1 SWAP2 OR SWAP1 SSTORE SWAP2 MLOAD PUSH1 0x4 SWAP1 SWAP5 ADD SWAP4 SWAP1 SWAP4 SSTORE DUP4 MLOAD SWAP1 DUP2 MSTORE SWAP1 DUP2 ADD SWAP2 SWAP1 SWAP2 MSTORE DUP3 SWAP2 DUP5 SWAP2 DUP7 SWAP2 PUSH32 0x5A80F3FC67A667AB6445E37A79E442CAD9581DB42B0AAB36ABE1D49F78788A4 SWAP2 ADD PUSH1 0x40 MLOAD DUP1 SWAP2 SUB SWAP1 LOG4 POP POP POP JUMP JUMPDEST PUSH1 0x0 DUP1 PUSH1 0x0 PUSH1 0x60 DUP5 DUP7 SUB SLT ISZERO PUSH2 0x3E1 JUMPI PUSH1 0x0 DUP1 REVERT JUMPDEST POP POP DUP2 CALLDATALOAD SWAP4 PUSH1 0x20 DUP4 ADD CALLDATALOAD SWAP4 POP PUSH1 0x40 SWAP1 SWAP3 ADD CALLDATALOAD SWAP2 SWAP1 POP JUMP JUMPDEST PUSH1 0x0 PUSH1 0x20 DUP3 DUP5 SUB SLT ISZERO PUSH2 0x40A JUMPI PUSH1 0x0 DUP1 REVERT JUMPDEST POP CALLDATALOAD SWAP2 SWAP1 POP JUMP INVALID LOG2 PUSH5 0x6970667358 0x22 SLT KECCAK256 AND 0xE2 PUSH26 0x835E4F12628FAF6ED0510D01960DD1040A0B83A5D7F8C1CFA39 0x1E CREATE 0xD3 PUSH5 0x736F6C6343 STOP ADDMOD AND STOP CALLER "},"methodIdentifiers":{"getWorkLog(bytes32)":"b03ea8b2","logExists(bytes32)":"77d03652","recordWorkLog(bytes32,uint256,bytes32)":"1f35b20f","workLogs(bytes32)":"46c1f9d8"}},"storageLayout":{"storage":[{"astId":2308,"contract":"contracts/WorkLogRegistry.sol:WorkLogRegistry","label":"workLogs","offset":0,"slot":"0","type":"t_mapping(t_bytes32,t_struct(WorkLog)2303_storage)"}],"types":{"t_address":{"encoding":"inplace","label":"address","numberOfBytes":"20"},"t_bytes32":{"encoding":"inplace","label":"bytes32","numberOfBytes":"32"},"t_mapping(t_bytes32,t_struct(WorkLog)2303_storage)":{"encoding":"mapping","key":"t_bytes32","label":"mapping(bytes32 => struct WorkLogRegistry.WorkLog)","numberOfBytes":"32","value":"t_struct(WorkLog)2303_storage"},"t_struct(WorkLog)2303_storage":{"encoding":"inplace","label":"struct WorkLogRegistry.WorkLog","members":[{"astId":2294,"contract":"contracts/WorkLogRegistry.sol:WorkLogRegistry","label":"logHash","offset":0,"slot":"0","type":"t_bytes32"},{"astId":2296,"contract":"contracts/WorkLogRegistry.sol:WorkLogRegistry","label":"eventId","offset":0,"slot":"1","type":"t_uint256"},{"astId":2298,"contract":"contracts/WorkLogRegistry.sol:WorkLogRegistry","label":"workerUidHash","offset":0,"slot":"2","type":"t_bytes32"},{"astId":2300,"contract":"contracts/WorkLogRegistry.sol:WorkLogRegistry","label":"anchoredBy","offset":0,"slot":"3","type":"t_address"},{"astId":2302,"contract":"contracts/WorkLogRegistry.sol:WorkLogRegistry","label":"timestamp","offset":0,"slot":"4","type":"t_uint256"}],"numberOfBytes":"160"},"t_uint256":{"encoding":"inplace","label":"uint256","numberOfBytes":"32"}}}}}}