{
  "_format": "hh-sol-artifact-1",
  "contractName": "WorkLogRegistry",
  "sourceName": "contracts/WorkLogRegistry.sol",
  "abi": [
    {
      "anonymous": false,
      "inputs": [
        {
          "indexed": true,
          "internalType": "bytes32",
          "name": "logHash",
          "type": "bytes32"
        },
        {
          "indexed": true,
          "internalType": "uint256",
          "name": "eventId",
          "type": "uint256"
        },
        {
          "indexed": true,
          "internalType": "bytes32",
          "name": "workerUidHash",
          "type": "bytes32"
        },
        {
          "indexed": false,
          "internalType": "address",
          "name": "anchoredBy",
          "type": "address"
        },
        {
          "indexed": false,
          "internalType": "uint256",
          "name": "timestamp",
          "type": "uint256"
        }
      ],
      "name": "WorkLogRecorded",
      "type": "event"
    },
    {
      "inputs": [
        {
          "internalType": "bytes32",
          "name": "logHash",
          "type": "bytes32"
        }
      ],
      "name": "getWorkLog",
      "outputs": [
        {
          "components": [
            {
              "internalType": "bytes32",
              "name": "logHash",
              "type": "bytes32"
            },
            {
              "internalType": "uint256",
              "name": "eventId",
              "type": "uint256"
            },
            {
              "internalType": "bytes32",
              "name": "workerUidHash",
              "type": "bytes32"
            },
            {
              "internalType": "address",
              "name": "anchoredBy",
              "type": "address"
            },
            {
              "internalType": "uint256",
              "name": "timestamp",
              "type": "uint256"
            }
          ],
          "internalType": "struct WorkLogRegistry.WorkLog",
          "name": "",
          "type": "tuple"
        }
      ],
      "stateMutability": "view",
      "type": "function"
    },
    {
      "inputs": [
        {
          "internalType": "bytes32",
          "name": "logHash",
          "type": "bytes32"
        }
      ],
      "name": "logExists",
      "outputs": [
        {
          "internalType": "bool",
          "name": "",
          "type": "bool"
        }
      ],
      "stateMutability": "view",
      "type": "function"
    },
    {
      "inputs": [
        {
          "internalType": "bytes32",
          "name": "logHash",
          "type": "bytes32"
        },
        {
          "internalType": "uint256",
          "name": "eventId",
          "type": "uint256"
        },
        {
          "internalType": "bytes32",
          "name": "workerUidHash",
          "type": "bytes32"
        }
      ],
      "name": "recordWorkLog",
      "outputs": [],
      "stateMutability": "nonpayable",
      "type": "function"
    },
    {
      "inputs": [
        {
          "internalType": "bytes32",
          "name": "",
          "type": "bytes32"
        }
      ],
      "name": "workLogs",
      "outputs": [
        {
          "internalType": "bytes32",
          "name": "logHash",
          "type": "bytes32"
        },
        {
          "internalType": "uint256",
          "name": "eventId",
          "type": "uint256"
        },
        {
          "internalType": "bytes32",
          "name": "workerUidHash",
          "type": "bytes32"
        },
        {
          "internalType": "address",
          "name": "anchoredBy",
          "type": "address"
        },
        {
          "internalType": "uint256",
          "name": "timestamp",
          "type": "uint256"
        }
      ],
      "stateMutability": "view",
      "type": "function"
    }
  ],
  "bytecode": "0x608060405234801561001057600080fd5b50610447806100206000396000f3fe608060405234801561001057600080fd5b506004361061004c5760003560e01c80631f35b20f1461005157806346c1f9d81461006657806377d03652146100e2578063b03ea8b214610117575b600080fd5b61006461005f3660046103cc565b6101ec565b005b6100ac6100743660046103f8565b600060208190529081526040902080546001820154600283015460038401546004909401549293919290916001600160a01b03169085565b604080519586526020860194909452928401919091526001600160a01b03166060830152608082015260a0015b60405180910390f35b6101076100f03660046103f8565b600090815260208190526040902060040154151590565b60405190151581526020016100d9565b6101a66101253660046103f8565b6040805160a0810182526000808252602082018190529181018290526060810182905260808101919091525060009081526020818152604091829020825160a0810184528154815260018201549281019290925260028101549282019290925260038201546001600160a01b03166060820152600490910154608082015290565b6040516100d991908151815260208083015190820152604080830151908201526060808301516001600160a01b0316908201526080918201519181019190915260a00190565b826102315760405162461bcd60e51b815260206004820152601060248201526f092dcecc2d8d2c840d8dece40d0c2e6d60831b60448201526064015b60405180910390fd5b600082116102745760405162461bcd60e51b815260206004820152601060248201526f125b9d985b1a5908195d995b9d08125160821b6044820152606401610228565b806102c15760405162461bcd60e51b815260206004820152601760248201527f496e76616c696420776f726b65722055494420686173680000000000000000006044820152606401610228565b600083815260208190526040902060040154156103155760405162461bcd60e51b81526020600482015260126024820152714c6f6720616c72656164792065786973747360701b6044820152606401610228565b6040805160a08101825284815260208082018581528284018581523360608501818152426080870181815260008c8152808852899020975188559451600188015592516002870155516003860180546001600160a01b0319166001600160a01b0390921691909117905591516004909401939093558351908152908101919091528291849186917f05a80f3fc67a667ab6445e37a79e442cad9581db42b0aab36abe1d49f78788a4910160405180910390a4505050565b6000806000606084860312156103e157600080fd5b505081359360208301359350604090920135919050565b60006020828403121561040a57600080fd5b503591905056fea264697066735822122016e2790835e4f12628faf6ed0510d01960dd1040a0b83a5d7f8c1cfa391ef0d364736f6c63430008160033",
  "linkReferences": {},
  "deployedLinkReferences": {}
}