{
  "_format": "hh-sol-artifact-1",
  "contractName": "WorkProofToken",
  "sourceName": "contracts/WorkProofToken.sol",
  "abi": [
    {
      "inputs": [],
      "stateMutability": "nonpayable",
      "type": "constructor"
    },
    {
      "inputs": [
        {
          "internalType": "address",
          "name": "target",
          "type": "address"
        }
      ],
      "name": "AddressEmptyCode",
      "type": "error"
    },
    {
      "inputs": [
        {
          "internalType": "address",
          "name": "implementation",
          "type": "address"
        }
      ],
      "name": "ERC1967InvalidImplementation",
      "type": "error"
    },
    {
      "inputs": [],
      "name": "ERC1967NonPayable",
      "type": "error"
    },
    {
      "inputs": [
        {
          "internalType": "address",
          "name": "spender",
          "type": "address"
        },
        {
          "internalType": "uint256",
          "name": "allowance",
          "type": "uint256"
        },
        {
          "internalType": "uint256",
          "name": "needed",
          "type": "uint256"
        }
      ],
      "name": "ERC20InsufficientAllowance",
      "type": "error"
    },
    {
      "inputs": [
        {
          "internalType": "address",
          "name": "sender",
          "type": "address"
        },
        {
          "internalType": "uint256",
          "name": "balance",
          "type": "uint256"
        },
        {
          "internalType": "uint256",
          "name": "needed",
          "type": "uint256"
        }
      ],
      "name": "ERC20InsufficientBalance",
      "type": "error"
    },
    {
      "inputs": [
        {
          "internalType": "address",
          "name": "approver",
          "type": "address"
        }
      ],
      "name": "ERC20InvalidApprover",
      "type": "error"
    },
    {
      "inputs": [
        {
          "internalType": "address",
          "name": "receiver",
          "type": "address"
        }
      ],
      "name": "ERC20InvalidReceiver",
      "type": "error"
    },
    {
      "inputs": [
        {
          "internalType": "address",
          "name": "sender",
          "type": "address"
        }
      ],
      "name": "ERC20InvalidSender",
      "type": "error"
    },
    {
      "inputs": [
        {
          "internalType": "address",
          "name": "spender",
          "type": "address"
        }
      ],
      "name": "ERC20InvalidSpender",
      "type": "error"
    },
    {
      "inputs": [],
      "name": "FailedCall",
      "type": "error"
    },
    {
      "inputs": [],
      "name": "InvalidInitialization",
      "type": "error"
    },
    {
      "inputs": [],
      "name": "NotInitializing",
      "type": "error"
    },
    {
      "inputs": [
        {
          "internalType": "address",
          "name": "owner",
          "type": "address"
        }
      ],
      "name": "OwnableInvalidOwner",
      "type": "error"
    },
    {
      "inputs": [
        {
          "internalType": "address",
          "name": "account",
          "type": "address"
        }
      ],
      "name": "OwnableUnauthorizedAccount",
      "type": "error"
    },
    {
      "inputs": [],
      "name": "UUPSUnauthorizedCallContext",
      "type": "error"
    },
    {
      "inputs": [
        {
          "internalType": "bytes32",
          "name": "slot",
          "type": "bytes32"
        }
      ],
      "name": "UUPSUnsupportedProxiableUUID",
      "type": "error"
    },
    {
      "anonymous": false,
      "inputs": [
        {
          "indexed": true,
          "internalType": "address",
          "name": "owner",
          "type": "address"
        },
        {
          "indexed": true,
          "internalType": "address",
          "name": "spender",
          "type": "address"
        },
        {
          "indexed": false,
          "internalType": "uint256",
          "name": "value",
          "type": "uint256"
        }
      ],
      "name": "Approval",
      "type": "event"
    },
    {
      "anonymous": false,
      "inputs": [
        {
          "indexed": false,
          "internalType": "uint64",
          "name": "version",
          "type": "uint64"
        }
      ],
      "name": "Initialized",
      "type": "event"
    },
    {
      "anonymous": false,
      "inputs": [
        {
          "indexed": true,
          "internalType": "address",
          "name": "previousOwner",
          "type": "address"
        },
        {
          "indexed": true,
          "internalType": "address",
          "name": "newOwner",
          "type": "address"
        }
      ],
      "name": "OwnershipTransferred",
      "type": "event"
    },
    {
      "anonymous": false,
      "inputs": [
        {
          "indexed": true,
          "internalType": "address",
          "name": "from",
          "type": "address"
        },
        {
          "indexed": false,
          "internalType": "uint256",
          "name": "amount",
          "type": "uint256"
        },
        {
          "indexed": false,
          "internalType": "string",
          "name": "reason",
          "type": "string"
        }
      ],
      "name": "TokensBurned",
      "type": "event"
    },
    {
      "anonymous": false,
      "inputs": [
        {
          "indexed": true,
          "internalType": "address",
          "name": "to",
          "type": "address"
        },
        {
          "indexed": false,
          "internalType": "uint256",
          "name": "amount",
          "type": "uint256"
        },
        {
          "indexed": false,
          "internalType": "string",
          "name": "reason",
          "type": "string"
        }
      ],
      "name": "TokensMinted",
      "type": "event"
    },
    {
      "anonymous": false,
      "inputs": [
        {
          "indexed": true,
          "internalType": "address",
          "name": "from",
          "type": "address"
        },
        {
          "indexed": true,
          "internalType": "address",
          "name": "to",
          "type": "address"
        },
        {
          "indexed": false,
          "internalType": "uint256",
          "name": "value",
          "type": "uint256"
        }
      ],
      "name": "Transfer",
      "type": "event"
    },
    {
      "anonymous": false,
      "inputs": [
        {
          "indexed": false,
          "internalType": "bool",
          "name": "enabled",
          "type": "bool"
        }
      ],
      "name": "TransfersToggled",
      "type": "event"
    },
    {
      "anonymous": false,
      "inputs": [
        {
          "indexed": true,
          "internalType": "address",
          "name": "implementation",
          "type": "address"
        }
      ],
      "name": "Upgraded",
      "type": "event"
    },
    {
      "anonymous": false,
      "inputs": [
        {
          "indexed": true,
          "internalType": "address",
          "name": "account",
          "type": "address"
        },
        {
          "indexed": false,
          "internalType": "bool",
          "name": "status",
          "type": "bool"
        }
      ],
      "name": "WhitelistUpdated",
      "type": "event"
    },
    {
      "inputs": [],
      "name": "UPGRADE_INTERFACE_VERSION",
      "outputs": [
        {
          "internalType": "string",
          "name": "",
          "type": "string"
        }
      ],
      "stateMutability": "view",
      "type": "function"
    },
    {
      "inputs": [
        {
          "internalType": "address",
          "name": "owner",
          "type": "address"
        },
        {
          "internalType": "address",
          "name": "spender",
          "type": "address"
        }
      ],
      "name": "allowance",
      "outputs": [
        {
          "internalType": "uint256",
          "name": "",
          "type": "uint256"
        }
      ],
      "stateMutability": "view",
      "type": "function"
    },
    {
      "inputs": [
        {
          "internalType": "address",
          "name": "spender",
          "type": "address"
        },
        {
          "internalType": "uint256",
          "name": "value",
          "type": "uint256"
        }
      ],
      "name": "approve",
      "outputs": [
        {
          "internalType": "bool",
          "name": "",
          "type": "bool"
        }
      ],
      "stateMutability": "nonpayable",
      "type": "function"
    },
    {
      "inputs": [
        {
          "internalType": "address",
          "name": "account",
          "type": "address"
        }
      ],
      "name": "balanceOf",
      "outputs": [
        {
          "internalType": "uint256",
          "name": "",
          "type": "uint256"
        }
      ],
      "stateMutability": "view",
      "type": "function"
    },
    {
      "inputs": [
        {
          "internalType": "address[]",
          "name": "recipients",
          "type": "address[]"
        },
        {
          "internalType": "uint256[]",
          "name": "amounts",
          "type": "uint256[]"
        },
        {
          "internalType": "string",
          "name": "reason",
          "type": "string"
        }
      ],
      "name": "batchMint",
      "outputs": [],
      "stateMutability": "nonpayable",
      "type": "function"
    },
    {
      "inputs": [
        {
          "internalType": "address",
          "name": "from",
          "type": "address"
        },
        {
          "internalType": "uint256",
          "name": "amount",
          "type": "uint256"
        },
        {
          "internalType": "string",
          "name": "reason",
          "type": "string"
        }
      ],
      "name": "burn",
      "outputs": [],
      "stateMutability": "nonpayable",
      "type": "function"
    },
    {
      "inputs": [],
      "name": "decimals",
      "outputs": [
        {
          "internalType": "uint8",
          "name": "",
          "type": "uint8"
        }
      ],
      "stateMutability": "pure",
      "type": "function"
    },
    {
      "inputs": [],
      "name": "initialize",
      "outputs": [],
      "stateMutability": "nonpayable",
      "type": "function"
    },
    {
      "inputs": [
        {
          "internalType": "address",
          "name": "to",
          "type": "address"
        },
        {
          "internalType": "uint256",
          "name": "amount",
          "type": "uint256"
        },
        {
          "internalType": "string",
          "name": "reason",
          "type": "string"
        }
      ],
      "name": "mint",
      "outputs": [],
      "stateMutability": "nonpayable",
      "type": "function"
    },
    {
      "inputs": [],
      "name": "name",
      "outputs": [
        {
          "internalType": "string",
          "name": "",
          "type": "string"
        }
      ],
      "stateMutability": "view",
      "type": "function"
    },
    {
      "inputs": [],
      "name": "owner",
      "outputs": [
        {
          "internalType": "address",
          "name": "",
          "type": "address"
        }
      ],
      "stateMutability": "view",
      "type": "function"
    },
    {
      "inputs": [],
      "name": "proxiableUUID",
      "outputs": [
        {
          "internalType": "bytes32",
          "name": "",
          "type": "bytes32"
        }
      ],
      "stateMutability": "view",
      "type": "function"
    },
    {
      "inputs": [],
      "name": "renounceOwnership",
      "outputs": [],
      "stateMutability": "nonpayable",
      "type": "function"
    },
    {
      "inputs": [
        {
          "internalType": "address",
          "name": "account",
          "type": "address"
        },
        {
          "internalType": "bool",
          "name": "status",
          "type": "bool"
        }
      ],
      "name": "setWhitelist",
      "outputs": [],
      "stateMutability": "nonpayable",
      "type": "function"
    },
    {
      "inputs": [],
      "name": "symbol",
      "outputs": [
        {
          "internalType": "string",
          "name": "",
          "type": "string"
        }
      ],
      "stateMutability": "view",
      "type": "function"
    },
    {
      "inputs": [
        {
          "internalType": "bool",
          "name": "enabled",
          "type": "bool"
        }
      ],
      "name": "toggleTransfers",
      "outputs": [],
      "stateMutability": "nonpayable",
      "type": "function"
    },
    {
      "inputs": [],
      "name": "totalSupply",
      "outputs": [
        {
          "internalType": "uint256",
          "name": "",
          "type": "uint256"
        }
      ],
      "stateMutability": "view",
      "type": "function"
    },
    {
      "inputs": [
        {
          "internalType": "address",
          "name": "to",
          "type": "address"
        },
        {
          "internalType": "uint256",
          "name": "value",
          "type": "uint256"
        }
      ],
      "name": "transfer",
      "outputs": [
        {
          "internalType": "bool",
          "name": "",
          "type": "bool"
        }
      ],
      "stateMutability": "nonpayable",
      "type": "function"
    },
    {
      "inputs": [
        {
          "internalType": "address",
          "name": "from",
          "type": "address"
        },
        {
          "internalType": "address",
          "name": "to",
          "type": "address"
        },
        {
          "internalType": "uint256",
          "name": "value",
          "type": "uint256"
        }
      ],
      "name": "transferFrom",
      "outputs": [
        {
          "internalType": "bool",
          "name": "",
          "type": "bool"
        }
      ],
      "stateMutability": "nonpayable",
      "type": "function"
    },
    {
      "inputs": [
        {
          "internalType": "address",
          "name": "newOwner",
          "type": "address"
        }
      ],
      "name": "transferOwnership",
      "outputs": [],
      "stateMutability": "nonpayable",
      "type": "function"
    },
    {
      "inputs": [
        {
          "internalType": "address",
          "name": "",
          "type": "address"
        }
      ],
      "name": "transferWhitelist",
      "outputs": [
        {
          "internalType": "bool",
          "name": "",
          "type": "bool"
        }
      ],
      "stateMutability": "view",
      "type": "function"
    },
    {
      "inputs": [],
      "name": "transfersEnabled",
      "outputs": [
        {
          "internalType": "bool",
          "name": "",
          "type": "bool"
        }
      ],
      "stateMutability": "view",
      "type": "function"
    },
    {
      "inputs": [
        {
          "internalType": "address",
          "name": "newImplementation",
          "type": "address"
        },
        {
          "internalType": "bytes",
          "name": "data",
          "type": "bytes"
        }
      ],
      "name": "upgradeToAndCall",
      "outputs": [],
      "stateMutability": "payable",
      "type": "function"
    }
  ],
  "bytecode": "0x60a06040523060805234801561001457600080fd5b5061001d610022565b6100d4565b7ff0c57e16840df040f15088dc2f81fe391c3923bec73e23a9662efc9c229c6a00805468010000000000000000900460ff16156100725760405163f92ee8a960e01b815260040160405180910390fd5b80546001600160401b03908116146100d15780546001600160401b0319166001600160401b0390811782556040519081527fc7f505b2f371ae2175ee4913f4499e1f2633a7b5936321eed1cdaeb6115181d29060200160405180910390a15b50565b608051611a586100fd60003960008181610c6501528181610c8e0152610dcf0152611a586000f3fe6080604052600436106101405760003560e01c806370a08231116100b6578063a9059cbb1161006f578063a9059cbb146103bd578063ad3cb1cc146103dd578063bef97c871461040e578063d3fc986414610428578063dd62ed3e14610448578063f2fde38b1461046857600080fd5b806370a08231146102c4578063715018a6146103075780637ffbe2411461031c5780638129fc1c1461034c5780638da5cb5b1461036157806395d89b41146103a857600080fd5b8063313ce56711610108578063313ce5671461022057806337f9fbdd1461023c5780634f1ef2861461025c57806352d1902d1461026f57806353d6fd591461028457806368504158146102a457600080fd5b806306fdde0314610145578063095ea7b31461017057806315f570dc146101a057806318160ddd146101c257806323b872dd14610200575b600080fd5b34801561015157600080fd5b5061015a610488565b6040516101679190611444565b60405180910390f35b34801561017c57600080fd5b5061019061018b366004611493565b61054b565b6040519015158152602001610167565b3480156101ac57600080fd5b506101c06101bb366004611506565b610565565b005b3480156101ce57600080fd5b507f52c63247e1f47db19d5ce0460030c497f067ca4cebf71ba98eeadabe20bace02545b604051908152602001610167565b34801561020c57600080fd5b5061019061021b366004611560565b6105c2565b34801561022c57600080fd5b5060405160008152602001610167565b34801561024857600080fd5b506101c06102573660046115e1565b6105e8565b6101c061026a366004611691565b61071d565b34801561027b57600080fd5b506101f261073c565b34801561029057600080fd5b506101c061029f366004611763565b610759565b3480156102b057600080fd5b506101c06102bf366004611796565b6107c0565b3480156102d057600080fd5b506101f26102df3660046117b1565b6001600160a01b031660009081526000805160206119e3833981519152602052604090205490565b34801561031357600080fd5b506101c061080f565b34801561032857600080fd5b506101906103373660046117b1565b60016020526000908152604090205460ff1681565b34801561035857600080fd5b506101c0610823565b34801561036d57600080fd5b507f9016d09d72d40fdae2fd8ceac6b6234c7706214fd39c1cd1e609a0528c199300546040516001600160a01b039091168152602001610167565b3480156103b457600080fd5b5061015a610997565b3480156103c957600080fd5b506101906103d8366004611493565b6109d6565b3480156103e957600080fd5b5061015a604051806040016040528060058152602001640352e302e360dc1b81525081565b34801561041a57600080fd5b506000546101909060ff1681565b34801561043457600080fd5b506101c0610443366004611506565b6109e4565b34801561045457600080fd5b506101f26104633660046117cc565b610a33565b34801561047457600080fd5b506101c06104833660046117b1565b610a7d565b7f52c63247e1f47db19d5ce0460030c497f067ca4cebf71ba98eeadabe20bace0380546060916000805160206119e3833981519152916104c7906117f6565b80601f01602080910402602001604051908101604052809291908181526020018280546104f3906117f6565b80156105405780601f1061051557610100808354040283529160200191610540565b820191906000526020600020905b81548152906001019060200180831161052357829003601f168201915b505050505091505090565b600033610559818585610abb565b60019150505b92915050565b61056d610acd565b6105778484610b28565b836001600160a01b03167ffad31924d655455395c87544c8aa1ffdb5a7505a22a3c2e03f28003b6556a75f8484846040516105b493929190611830565b60405180910390a250505050565b6000336105d0858285610b5e565b6105db858585610bc5565b60019150505b9392505050565b6105f0610acd565b8483146106365760405162461bcd60e51b815260206004820152600f60248201526e098cadccee8d040dad2e6dac2e8c6d608b1b60448201526064015b60405180910390fd5b60005b858110156107145761068987878381811061065657610656611866565b905060200201602081019061066b91906117b1565b86868481811061067d5761067d611866565b90506020020135610c24565b86868281811061069b5761069b611866565b90506020020160208101906106b091906117b1565b6001600160a01b03167f9d89e36eadf856db0ad9ffb5a569e07f95634dddd9501141ecf04820484ad0dc8686848181106106ec576106ec611866565b90506020020135858560405161070493929190611830565b60405180910390a2600101610639565b50505050505050565b610725610c5a565b61072e82610cff565b6107388282610d07565b5050565b6000610746610dc4565b50600080516020611a0383398151915290565b610761610acd565b6001600160a01b038216600081815260016020908152604091829020805460ff191685151590811790915591519182527ff93f9a76c1bf3444d22400a00cb9fe990e6abe9dbb333fda48859cfee864543d910160405180910390a25050565b6107c8610acd565b6000805460ff19168215159081179091556040519081527fe1965432af4c9923f6ebb98f1721262967cfa6178008742d23041dc8ee74ee8f9060200160405180910390a150565b610817610acd565b6108216000610e0d565b565b600061082d610e7e565b805490915060ff600160401b820416159067ffffffffffffffff166000811580156108555750825b905060008267ffffffffffffffff1660011480156108725750303b155b905081158015610880575080155b1561089e5760405163f92ee8a960e01b815260040160405180910390fd5b845467ffffffffffffffff1916600117855583156108c857845460ff60401b1916600160401b1785555b6109146040518060400160405280600f81526020016e2bb7b935a83937b7b3102a37b5b2b760891b8152506040518060400160405280600381526020016215d41560ea1b815250610ea7565b61091d33610eb9565b610925610eca565b6000805460ff19908116825533825260016020819052604090922080549091169091179055831561099057845460ff60401b19168555604051600181527fc7f505b2f371ae2175ee4913f4499e1f2633a7b5936321eed1cdaeb6115181d29060200160405180910390a15b5050505050565b7f52c63247e1f47db19d5ce0460030c497f067ca4cebf71ba98eeadabe20bace0480546060916000805160206119e3833981519152916104c7906117f6565b600033610559818585610bc5565b6109ec610acd565b6109f68484610c24565b836001600160a01b03167f9d89e36eadf856db0ad9ffb5a569e07f95634dddd9501141ecf04820484ad0dc8484846040516105b493929190611830565b6001600160a01b0391821660009081527f52c63247e1f47db19d5ce0460030c497f067ca4cebf71ba98eeadabe20bace016020908152604080832093909416825291909152205490565b610a85610acd565b6001600160a01b038116610aaf57604051631e4fbdf760e01b81526000600482015260240161062d565b610ab881610e0d565b50565b610ac88383836001610ed2565b505050565b33610aff7f9016d09d72d40fdae2fd8ceac6b6234c7706214fd39c1cd1e609a0528c199300546001600160a01b031690565b6001600160a01b0316146108215760405163118cdaa760e01b815233600482015260240161062d565b6001600160a01b038216610b5257604051634b637e8f60e11b81526000600482015260240161062d565b61073882600083610fb9565b6000610b6a8484610a33565b9050600019811015610bbf5781811015610bb057604051637dc7a0d960e11b81526001600160a01b0384166004820152602481018290526044810183905260640161062d565b610bbf84848484036000610ed2565b50505050565b6001600160a01b038316610bef57604051634b637e8f60e11b81526000600482015260240161062d565b6001600160a01b038216610c195760405163ec442f0560e01b81526000600482015260240161062d565b610ac8838383610fb9565b6001600160a01b038216610c4e5760405163ec442f0560e01b81526000600482015260240161062d565b61073860008383610fb9565b306001600160a01b037f0000000000000000000000000000000000000000000000000000000000000000161480610ce157507f00000000000000000000000000000000000000000000000000000000000000006001600160a01b0316610cd5600080516020611a03833981519152546001600160a01b031690565b6001600160a01b031614155b156108215760405163703e46dd60e11b815260040160405180910390fd5b610ab8610acd565b816001600160a01b03166352d1902d6040518163ffffffff1660e01b8152600401602060405180830381865afa925050508015610d61575060408051601f3d908101601f19168201909252610d5e9181019061187c565b60015b610d8957604051634c9c8ce360e01b81526001600160a01b038316600482015260240161062d565b600080516020611a038339815191528114610dba57604051632a87526960e21b81526004810182905260240161062d565b610ac88383611076565b306001600160a01b037f000000000000000000000000000000000000000000000000000000000000000016146108215760405163703e46dd60e11b815260040160405180910390fd5b7f9016d09d72d40fdae2fd8ceac6b6234c7706214fd39c1cd1e609a0528c19930080546001600160a01b031981166001600160a01b03848116918217845560405192169182907f8be0079c531659141344cd1fd0a4f28419497f9722a3daafe3b4186f6b6457e090600090a3505050565b6000807ff0c57e16840df040f15088dc2f81fe391c3923bec73e23a9662efc9c229c6a0061055f565b610eaf6110cc565b61073882826110f1565b610ec16110cc565b610ab881611142565b6108216110cc565b6000805160206119e38339815191526001600160a01b038516610f0b5760405163e602df0560e01b81526000600482015260240161062d565b6001600160a01b038416610f3557604051634a1406b160e11b81526000600482015260240161062d565b6001600160a01b0380861660009081526001830160209081526040808320938816835292905220839055811561099057836001600160a01b0316856001600160a01b03167f8c5be1e5ebec7d5bd14f71427d1e84f3dd0314c0f7b2291e5b200ac8c7c3b92585604051610faa91815260200190565b60405180910390a35050505050565b6001600160a01b03831615801590610fd957506001600160a01b03821615155b1561106b5760005460ff168061100757506001600160a01b03831660009081526001602052604090205460ff165b8061102a57506001600160a01b03821660009081526001602052604090205460ff165b61106b5760405162461bcd60e51b8152602060048201526012602482015271151c985b9cd9995c9cc8191a5cd8589b195960721b604482015260640161062d565b610ac883838361114a565b61107f82611288565b6040516001600160a01b038316907fbc7cd75a20ee27fd9adebab32041f755214dbc6bffa90cc0225b39da2e5c2d3b90600090a28051156110c457610ac882826112ed565b610738611363565b6110d4611382565b61082157604051631afcd79f60e31b815260040160405180910390fd5b6110f96110cc565b6000805160206119e38339815191527f52c63247e1f47db19d5ce0460030c497f067ca4cebf71ba98eeadabe20bace0361113384826118e5565b5060048101610bbf83826118e5565b610a856110cc565b6000805160206119e38339815191526001600160a01b038416611186578181600201600082825461117b91906119a5565b909155506111f89050565b6001600160a01b038416600090815260208290526040902054828110156111d95760405163391434e360e21b81526001600160a01b0386166004820152602481018290526044810184905260640161062d565b6001600160a01b03851660009081526020839052604090209083900390555b6001600160a01b038316611216576002810180548390039055611235565b6001600160a01b03831660009081526020829052604090208054830190555b826001600160a01b0316846001600160a01b03167fddf252ad1be2c89b69c2b068fc378daa952ba7f163c4a11628f55a4df523b3ef8460405161127a91815260200190565b60405180910390a350505050565b806001600160a01b03163b6000036112be57604051634c9c8ce360e01b81526001600160a01b038216600482015260240161062d565b600080516020611a0383398151915280546001600160a01b0319166001600160a01b0392909216919091179055565b6060600080846001600160a01b03168460405161130a91906119c6565b600060405180830381855af49150503d8060008114611345576040519150601f19603f3d011682016040523d82523d6000602084013e61134a565b606091505b509150915061135a85838361139c565b95945050505050565b34156108215760405163b398979f60e01b815260040160405180910390fd5b600061138c610e7e565b54600160401b900460ff16919050565b6060826113b1576113ac826113f8565b6105e1565b81511580156113c857506001600160a01b0384163b155b156113f157604051639996b31560e01b81526001600160a01b038516600482015260240161062d565b50806105e1565b80511561140757805160208201fd5b60405163d6bda27560e01b815260040160405180910390fd5b60005b8381101561143b578181015183820152602001611423565b50506000910152565b6020815260008251806020840152611463816040850160208701611420565b601f01601f19169190910160400192915050565b80356001600160a01b038116811461148e57600080fd5b919050565b600080604083850312156114a657600080fd5b6114af83611477565b946020939093013593505050565b60008083601f8401126114cf57600080fd5b50813567ffffffffffffffff8111156114e757600080fd5b6020830191508360208285010111156114ff57600080fd5b9250929050565b6000806000806060858703121561151c57600080fd5b61152585611477565b935060208501359250604085013567ffffffffffffffff81111561154857600080fd5b611554878288016114bd565b95989497509550505050565b60008060006060848603121561157557600080fd5b61157e84611477565b925061158c60208501611477565b9150604084013590509250925092565b60008083601f8401126115ae57600080fd5b50813567ffffffffffffffff8111156115c657600080fd5b6020830191508360208260051b85010111156114ff57600080fd5b600080600080600080606087890312156115fa57600080fd5b863567ffffffffffffffff8082111561161257600080fd5b61161e8a838b0161159c565b9098509650602089013591508082111561163757600080fd5b6116438a838b0161159c565b9096509450604089013591508082111561165c57600080fd5b5061166989828a016114bd565b979a9699509497509295939492505050565b634e487b7160e01b600052604160045260246000fd5b600080604083850312156116a457600080fd5b6116ad83611477565b9150602083013567ffffffffffffffff808211156116ca57600080fd5b818501915085601f8301126116de57600080fd5b8135818111156116f0576116f061167b565b604051601f8201601f19908116603f011681019083821181831017156117185761171861167b565b8160405282815288602084870101111561173157600080fd5b8260208601602083013760006020848301015280955050505050509250929050565b8035801515811461148e57600080fd5b6000806040838503121561177657600080fd5b61177f83611477565b915061178d60208401611753565b90509250929050565b6000602082840312156117a857600080fd5b6105e182611753565b6000602082840312156117c357600080fd5b6105e182611477565b600080604083850312156117df57600080fd5b6117e883611477565b915061178d60208401611477565b600181811c9082168061180a57607f821691505b60208210810361182a57634e487b7160e01b600052602260045260246000fd5b50919050565b83815260406020820152816040820152818360608301376000818301606090810191909152601f909201601f1916010192915050565b634e487b7160e01b600052603260045260246000fd5b60006020828403121561188e57600080fd5b5051919050565b601f821115610ac8576000816000526020600020601f850160051c810160208610156118be5750805b601f850160051c820191505b818110156118dd578281556001016118ca565b505050505050565b815167ffffffffffffffff8111156118ff576118ff61167b565b6119138161190d84546117f6565b84611895565b602080601f83116001811461194857600084156119305750858301515b600019600386901b1c1916600185901b1785556118dd565b600085815260208120601f198616915b8281101561197757888601518255948401946001909101908401611958565b50858210156119955787850151600019600388901b60f8161c191681555b5050505050600190811b01905550565b8082018082111561055f57634e487b7160e01b600052601160045260246000fd5b600082516119d8818460208701611420565b919091019291505056fe52c63247e1f47db19d5ce0460030c497f067ca4cebf71ba98eeadabe20bace00360894a13ba1a3210667c828492db98dca3e2076cc3735a920a3ca505d382bbca26469706673582212200c3b948659485da4f052c1d76c8a2dbad75c13ea0ce85e1c08709ce5d4cda17064736f6c63430008160033",
  "linkReferences": {},
  "deployedLinkReferences": {}
}